:10000000B9C10000DCC10000DAC10000D8C10000A5
:10001000D6C10000D4C10000D2C10000D0C1000090
:10002000CEC10000CCC100008EC400001CC5000081
:10003000C6C10000C4C10000C2C10000C0C10000B0
:10004000BEC10000BCC10000BAC10000B8C10000C0
:10005000B6C10000B4C10000B2C1000072C300000C
:10006000AEC10000ACC10000AAC10000A8C10000E0
:10007000A6C10000A4C10000A2C10000A0C10000F0
:100080009EC100009CC100009AC1000098C1000000
:1000900096C1000094C1000092C1000090C1000010
:1000A0008EC100008CC100008AC100000001000068
:1000B000F402120002000052018D00220000B5027D
:1000C0003F002100006401090022010055023800B0
:1000D0002101007D010900220200DF01210021022F
:1000E000009601090022030000025500210300B61A
:1000F0000109002204008D022800210400CF01091B
:10010000000300004E0104010309040E013E3E03FA
:100110005400650065006E007300790020004B00FC
:100120006500790062006F006100720064002F00BA
:100130004D006F007500730065002F004A006F00CE
:10014000790073007400690063006B000000040311
:10015000090409028D00050100C0320904000001F4
:1001600003010100092111010001223F000705835D
:100170000308000109040100010301020009211123
:100180000100012238000705840308000109040268
:1001900000020300000009211101000122210007D3
:1001A0000581034000010705020320000209040342
:1001B0000001030000000921110100012255000780
:1001C0000585030C00020904040001030000000976
:1001D00021110100012228000705860308000406FA
:1001E000C9FF0904A15C7508150026FF00954009A8
:1001F00075810295200976910295040976B102C0B5
:1002000005010904A10115002501750195200509C5
:10021000190129208102150025073500463B01758B
:10022000049501651405010939814205010901A1FF
:1002300000150026FF03750A9504093009310932BB
:1002400009358102C0150026FF03750A950209369B
:1002500009368102C005010902A101050919012918
:10026000081500250195087501810205010930096D
:100270003109381581257F750895038106050C0A1B
:1002800038021581257F750895018106C0050C0986
:1002900001A101750A950419002A9C021500269CEB
:1002A000028100050175089503190029B71500267C
:1002B000B7008100C005010906A101750195080577
:1002C0000719E029E71500250181029501750881CC
:1002D0000395057501050819012905910295017518
:1002E000039103950675081500257F050719002958
:1002F0007F8100C01201000200000040C01682048D
:10030000050100010001C136C026C106C106C116A3
:10031000C1062C5E7460616264346667656E362D5A
:100320003738271E1F202122232425267333762EBB
:1003300077785F4445464748494A4B4C4D4E4F50AD
:100340005152535455565758595A5B5C5D2F3130B2
:10035000636D350405060708090A0B0C0D0E0F1016
:100360001112131415161718191A1B1C1D6F717012
:10037000752A810811241FBECFEFDAE0DEBFCDBFA2
:1003800011E0A0E0B1E0E4EAF1E102C005900D92D5
:10039000A831B107D9F721E0A8E1B1E001C01D9271
:1003A000A233B207E1F711E0CAEBD1E003C0219715
:1003B000FE01F0D6C93BD107D1F73DD5F1C620CE1D
:1003C0002098289A2198299A22982A9A23982B9A39
:1003D00027982F9A5098589A5198599A52985A9A01
:1003E00053985B9A3E98469A3F98479A56985E9AD9
:1003F000EDE7F0E080818D7F808357985F9A808160
:100400008B7F808324982C9A8081877F8083259896
:100410002D9A80818F7E808326982E9A80818F7D71
:10042000808387988F9AEEE7F0E080818F778083D2
:1004300086988E9A80818F7B808385988D9A808123
:100440008F7D808384988C9A80818F7E8083819831
:10045000899A80818D7F808368EE73E080E090E0F0
:10046000B0C1189909C062E583E291E0B8D564E6AD
:1004700070E080E090E0A5D1199B30C01A9B38C095
:100480001B9B40C01F9B48C0489909C060E583E2A0
:1004900091E0A5D564E670E080E090E092D1499BC0
:1004A00045C04A9B4DC04B9B55C0369B5DC0379B9A
:1004B00065C04E9B6DC04F9B75C01C9B7DC01D9B36
:1004C00085C01E9B8DC07F9B95C07E9B9DC07D9BE4
:1004D000A5C07C9BADC0799BB5C008956FE483E255
:1004E00091E07DD564E670E080E090E06AD1C6CF0F
:1004F00069E583E291E073D564E670E080E090E026
:1005000060D1BECF67E483E291E069D564E670E034
:1005100080E090E056D1B6CF62E483E291E05FD50F
:1005200064E670E080E090E04CD1AECF6EE483E210
:1005300091E055D564E670E080E090E042D1B1CF23
:1005400062E783E291E04BD564E670E080E090E002
:1005500038D1A9CF6FE683E291E041D564E670E03F
:1005600080E090E02ED1A1CF69E783E291E037D51A
:1005700064E670E080E090E024D199CF67E683E202
:1005800091E02DD564E670E080E090E01AD191CF43
:1005900062E683E291E023D564E670E080E090E0DB
:1005A00010D189CF60E783E291E019D564E670E06D
:1005B00080E090E006D181CF6EE683E291E00FD536
:1005C00064E670E080E090E0FCD079CF61E483E203
:1005D00091E005D564E670E080E090E0F2D071CF64
:1005E00063E483E291E0FBD464E670E080E090E0B5
:1005F000E8D069CF64E483E291E0F1D464E670E08E
:1006000080E090E0DED061CF65E483E291E0E7D462
:1006100064E670E080E090E0D4D059CF66E483E2F5
:1006200091E0DDD464E670E080E090E0CAD051CF84
:1006300068E483E291E0D3D464E670E080E090E087
:10064000C0D049CF69E483E291E0C9D464E670E0A8
:1006500080E090E0B6C01DBA109268001CBC10BECD
:100660001FBA10927A0010926E0010926F001092D2
:100670007100109272001092C900ECEBF0E0108251
:1006800014B817B81AB81DB810BA108215B818B82F
:100690001BB81EB811BA0895F894E1E6F0E020E81E
:1006A0002083108283E084BD85BDEEE6F0E080818A
:1006B0008160808381E08093800092E0909381004C
:1006C00080939000909391009093C00094E0909359
:1006D000C1008093C2008093C3001092C40086E8DA
:1006E00080937A0020937B0010927E0010927D0010
:1006F000A7D078940895F89484B7877F84BF8091B9
:1007000060008061809360001092600080E29EE44F
:100710000197F1F781E08093E00080E28093D800B8
:1007200080E69AEE0197F1F796DF0C94003FFFCF39
:10073000F89491DF80E69AEE0197F1F70C940000AF
:10074000FFCF8F938FB78F93809118018D5F8D3777
:10075000D0F480931801809119018F5F8093190163
:10076000D8F080911A018F4F80931A01A8F08091E0
:100770001B018F4F80931B0178F080911C018F4FDC
:1007800080931C0109C08D57809318018091190135
:100790008E5F8093190128F780911D018C5F8093F3
:1007A0001D0158F080911E018F4F80931E0128F08B
:1007B00080911F018F4F80931F018F918FBF8F9169
:1007C0001895CF92DF92EF92FF926B017C0119D0C6
:1007D0009B01C114D104E104F10471F012D0621B39
:1007E000730B683E7340A8F381E0C81AD108E10892
:1007F000F10828513C4FEDCFFF90EF90DF90CF9064
:1008000008950FB6F89466B515B270911D018091E8
:100810001E0190911F010FBE10FE05C06F3F19F021
:100820007C5F8F4F9F4F11240024660F001C660FC2
:10083000001C702908958091E80080FFFCCF089586
:100840008091D80087FF02C085FF7CC081E0809343
:10085000D70080EA8093D80082E189BD09B400FE08
:10086000FDCF80E98093D8001092E00010926101E2
:100870001092600110925F0110925701109258017E
:100880001092590110925A0110925B0110925C0172
:1008900010925D0110925E0181E0809356019DE708
:1008A00090935501109254011092530110925201ED
:1008B0008093510110924501109246011092470118
:1008C000109248018FE08093490190E290934A0191
:1008D00080E880934B0110924C0122E020934D015F
:1008E00028E020934E0190934F0180935001109285
:1008F0003D0110923E0110923F0110924001109272
:100900004101109242011092430110924401109251
:100910003601109235011092380110923701109271
:100920003A011092390110923C0110923B01109251
:10093000320110923301109234011092E1008CE0E8
:100940008093E20008951F920F920FB60F92112428
:100950002F938F939F93EF93FF939091E1001092C9
:10096000E10093FF0FC01092E90081E08093EB005B
:100970001092EC0082E38093ED0088E08093F00019
:100980001092610192FF44C080916101882309F4B3
:100990003FC080915F01882391F0815080935F0177
:1009A00081110DC081E08093E9008091E80085FF0E
:1009B00003C01092F100F9CF8AE38093E8008091A0
:1009C0005501882329F1809121018F5F80932101B6
:1009D0008370F1F483E08093E9008091E80085FF63
:1009E00017C0809154018F5F80935401209155016D
:1009F00082130EC010925401E7E5F1E088E08E0FFB
:100A000021912093F1008E13FBCF8AE38093E800BD
:100A100090FF0CC080E18093E2001092610181E0C0
:100A20008093600180EA8093D80019BC80916001B6
:100A3000882379F094FF0DC082E189BD09B400FEDE
:100A4000FDCF80E98093D8008DE08093E200109282
:100A50006001FF91EF919F918F912F910F900FBEA9
:100A60000F901F9018951F920F920FB60F9211249E
:100A7000EF92FF920F931F932F933F934F935F93A8
:100A80006F937F938F939F93AF93BF93CF93EF9386
:100A9000FF931092E9008091E80083FFB3C1C091F9
:100AA000F1008091F1000091F1001091F100E090CF
:100AB000F100F090F1002091F1003091F10092EFFF
:100AC0009093E800863009F03FC08EE0ECEAF0E059
:100AD000459155914017510711F0359615C0459134
:100AE00055914E155F0511F033960EC04591559105
:100AF00084912F3F310519F010F02FEF30E02817C7
:100B000008F4822F3EEF08C0815011F77BC1891B8A
:100B10003093E8008823A9F09091E800292F2570F0
:100B2000D9F392FD72C1982F813408F090E4292FF7
:100B3000222369F3FA0145914093F100AF0121505E
:100B4000F7CF903449F361C1853041F48EEF809343
:100B5000E80071DE00680093E30057C18930E1F4DA
:100B6000C1115DC00093610110925F018EEF80930F
:100B7000E80081E0E6E0F3E021E08093E9002093E3
:100B8000EB0095919093EC0095919093ED008F5F21
:100B9000873099F78EE13EC0883039F4C03809F0CB
:100BA0003EC049DE8091610198C0811111C043DED1
:100BB000C23851F4E092E9008091EB0085FB882770
:100BC00080F91092E90001C080E08093F1007CC0C0
:100BD000982F9D7F913019F5C23009F50115110547
:100BE00009F05BC04E2D4F779FEF940F973008F0C0
:100BF00054C09EEF9093E8004093E900833009F4DD
:100C000001C189E18093EB0081E090E001C0880F91
:100C10004A95EAF78093EA001092EA00F6C0E114E0
:100C2000F10409F03EC0C13AD1F4813059F403DE39
:100C3000E7E5F1E088E08E0F91919093F1008E133B
:100C4000FBCF80C0823021F4F6DD8091550145C094
:100C5000833009F0D7C0EFDD809156013EC0C1322C
:100C600009F0C7C0893061F48091E80082FFFCCFB1
:100C70008091F100809353018BEF8093E80062C074
:100C80008A3029F410935501109254015BC08B30C7
:100C900009F0B8C00093560155C0E114F10409F4FD
:100CA000A8C091E0E916F10421F5C13AC9F48130F8
:100CB00071F4C1DD809152018093F1001092F10036
:100CC0001092F1001092F1001092F1003BC08330BD
:100CD00009F098C0B0DD809151018093F10032C0DD
:100CE000C13209F086C08B3009F08CC000935101ED
:100CF00029C093E0E916F10489F4C13A09F079C0FA
:100D0000813009F07FC097DDE5E4F1E08CE08E0FE3
:100D100091919093F1008E13FBCF14C094E0E916EB
:100D2000F104A1F4C13A09F064C0813009F06AC04D
:100D300082DDEDE3F1E088E08E0F91919093F10078
:100D40008E13FBCF8EEF8093E8005FC092E0E91630
:100D5000F10409F04EC08130F1F4C13A09F052C0FB
:100D60003EEF8091E800982F9570D9F382FD4DC039
:100D7000822F213408F080E4982F992321F01092DB
:100D8000F1009150FACF281B3093E8002111E9CFF0
:100D9000803439F33AC0893061F5C13299F50115D3
:100DA000134081F52430310569F58091E80082FF18
:100DB000FCCF3091F1002091F1009091F1008091F1
:100DC000F1004BEF4093E8004EEF4093E800393AD2
:100DD00039F42534B9F4923CA9F48B3699F48BDCC0
:100DE0003B3881F4253C71F49D3161F4803751F436
:100DF00008C0893C39F4C03429F48EEF8093E800B0
:100E00001ADD96DC81E28093EB00FF91EF91CF91A8
:100E1000BF91AF919F918F917F916F915F914F9112
:100E20003F912F911F910F91FF90EF900F900FBE68
:100E30000F901F90189530DCC3DA13DBFECF809142
:100E40006101882371F08FB7F89492E09093E900E4
:100E50002BE69091E80095FF03C02093E800F9CFBE
:100E60008FBF109231010895FC01809161018823A8
:100E700069F19FB7F89481E08093E9002091E40044
:100E8000275E3091E80035FD0EC09FBF9091E400D1
:100E90009217E1F0909161019923C1F09FB7F89406
:100EA0008093E900EECF6093F1008091E80085FD2A
:100EB00006C08AE38093E80010925F0103C084E0DB
:100EC00080935F019FBF81E090E0089581E082837D
:100ED00080E090E008956032710540F46A30710559
:100EE00069F06B30710561F48BE20895603871052B
:100EF00038F4FB01EE50FD4F8491089588E2089587
:100F000080E0089580916101882309F441C08FB782
:100F1000F89493E09093E9009091E4009E5C23E0C4
:100F20003091E80035FD0EC08FBF809161018823AC
:100F300079F18091E400891759F18FB7F8942093E3
:100F4000E900EECF909157019093F10090915801F4
:100F50009093F100909159019093F10090915A0172
:100F60009093F10090915B019093F10090915C015E
:100F70009093F10090915D019093F10090915E014A
:100F80009093F1009AE39093E800109254018FBF80
:100F90000895CF93DF93EC0166FF02C082E001C0A9
:100FA00080E080935701109258016F73609359014C
:100FB00010925A0110925B0110925C0110925D0137
:100FC00010925E01CE019EDF1092570110925901DE
:100FD000CE01DF91CF9196CF6111DBCF0895CF93F2
:100FE000DF93EC0167FD03C01B8270E00CC0603C26
:100FF000D8F46F738B81813061F41B828C819D8169
:101000009C01262BB901CE0166DF682FCE01E4DFFB
:1010100020C08230F1F430E4639FB00111248C8150
:101020009D81682B792B07C0603E48F46F7180E486
:10103000689FB00111247D836C8381E009C0603F0B
:1010400030F46295607F1C826D8382E001C08FEF77
:101050008B8381E090E0DF91CF9108959FB7F89462
:10106000809161018823C1F082E08093E9003BE632
:101070002091E800822F807225FF0EC08091F10040
:10108000811103C03093E800F3CF2091E80025FDE3
:1010900003C02BE62093E8009FBF08952091310103
:1010A000211105C0DBDF882329F08093310181E025
:1010B00090E0089580E090E008959C0190913101C6
:1010C000992321F010923101892F04C0C901C6DF94
:1010D000882311F090E008958FEF9FEF08959C0111
:1010E00090913101992311F0892F06C0C901B6DF13
:1010F000882321F08093310190E008958FEF9FEFD6
:101100000895E9E2F1E088E0DF011D928A95E9F7B0
:1011100088EE93E0A0E0B0E083839483A583B68358
:101120008CE091E091838083E3E2F1E086E0DF01EF
:101130001D928A95E9F784E091E091838083109273
:1011400022010895CF92DF92EF92FF920F931F93A7
:10115000CF93DF936C01EB017B01E40EF51E00E001
:1011600010E0CE15DF0561F06991D601ED91FC919B
:101170000190F081E02DC6010995080F191FF1CFEC
:10118000C801DF91CF911F910F91FF90EF90DF90F9
:10119000CF900895EE0FFF1F0590F491E02D099474
:0411A000F894FFCFF1
:1011A40000000000EF07A208000000003407A208B6
:0811B4004E085D086F081F07DB
:00000001FF
